S01200006770644D473132763636322E7333379C
S214000000000004206D600000996000009960000008
S21400001099600000996000009960000099600000F7
S21400002099600000996000009960000099600000E7
S21400003099600000986000009960000099600000D8
S214000040110B0000F5AF00009960000099600000F9
S21400005099A9000061B0000001B0000019B00000CE
S214000060F9AF00008105000055060000150B0000E2
S214000070012200009960000099600000996000006D
S2140000809960000099600000790600009960000001
S2140000909960000099600000996000009960000077
S2140000A0996000009960000099600000652D0000CE
S2140000B065B00000FDAF000009080000A5B0000014
S2140000C079200000917D0000996000009960000092
S2140000D09960000099600000996000009960000037
S2140000E09960000099600000996000009960000027
S2140000F09960000099600000996000009960000017
S21400010099600000996000009960000010B5054CE9
S214000110237833B9044B13B10448AFF300800123AE
S214000120237010BD7004002000000000100A0100BB
S21400013008B5034B1BB103490348AFF3008008BD65
S2140001400000000074040020100A0100154B002B6C
S21400015008BF134B9D46A3F5803A00218B460F46F9
S2140001601348144A121A0BF0FDF90F4B002B00D05F
S21400017098470E4B002B00D0984700200021040023
S2140001800D000D48002802D00C48AFF300800BF09D
S2140001909BF92000290000F017F90BF081F900BF49
S2140001A0000008000000042000000000000000001E
S2140001B070040020180E0020000000000000000060
S2140001C02DE9F341137813F0010F114614BF0324F1
S2140001D001249A070646C3F3C1074FEA531800F1F5
S2140001E0120519D5C3F380036BB104F1140304F1AF
S2140001F010020B440A440095214402F03FFC58B11B
S2140002004FF0FF300FE02846E218D2B201338A5C86
S21400021000F8012B102BF7D186F81180377428468A
S21400022002F08AFB002002B0BDE8F08108B500F0BD
S21400023065F90220BDE8084000F066B938B50D46FD
S214000240044600F00DF92A462146FFF7B9FF20B90B
S2140002500420BDE8384000F057B938BD1FB504AAE1
S214000260E12302F8043D01230146044600930020E2
S21400027002F0D4FC204600F0F7F8204602F0C8F85A
S21400028004B010BD2DE9F04790F82B3090B004462E
S214000290002B51D1484D03822A78012180F828107E
S2140002A062BB464B427306AA017303F110079046E1
S2140002B018685968164603C60833BB423246F7D15B
S2140002C004274FF0E30A4FF00109002618F806301D
S2140002D084F82930CDF80090022302AA2146012096
S2140002E00136ADF808A002F099FC102EEED1013FC1
S2140002F0EBD185F8009010B0BDE8F087012AFAD15E
S2140003004273037304264FF00B08E32794F82B3050
S214000310022B0ED0012084F829800090022306AA22
S2140003202146ADF8187002F079FC013EEED184F853
S2140003302B6000232B70DEE7022B2FD1204F0425E5
S2140003404FF0000894F82B30042BD4D01D4B02AA93
S21400035003F1100E944618685968164603C608330B
S21400036073453246F7D1666A84F8108061460BAB57
S21400037007AA2046069702F045FB31460CA800F077
S214000380CDF80123009306AA1C232146002002F084
S21400039045FC013DD6D184F82B50ACE7042BAAD1FE
S2140003A010AAE22302F8283D01230146009300200C
S2140003B002F034FC9FE700BF8C04002080C50000DC
S2140003C0E002E3F390C5000008B51F4B01225A6413
S2140003D01E4BDB6C1B0E0FD11D491E484AF6E85219
S2140003E00A60026842F0040202600B601A4A136850
S2140003F043F40053136001E0012BF7D0174A136A49
S21400040023F4441343F488131362A2F5804213685E
S21400041043F48073136001F0C9FF02F03EFE02F061
S21400042073FC042002F096FD0021084600F064FAF2
S214000430032000F081FA02F0D3F900F04DF801F045
S21400044029FE002008BD00BF00000E40B081E00F6E
S21400045090310E4098310E4064310E4000400E4000
S2140004600048704790040020F0B500224272184AF7
S21400047002600B2280F829200A22C273012285B06E
S214000480427380F82820134A14216D460346817370
S21400049002F110072C46106851682E4603C6083233
S2140004A0BA423546F7D103F1120504AE224603CA16
S2140004B0B24228606960144605F10805F6D10422A8
S2140004C05A7403221A74002283F82B2005B0F0BD5C
S2140004D078563412A0C5000010B5074C2046FFF72A
S2140004E0C3FF204601F0A2FF2046626A04F1120113
S2140004F002F030FB204610BD90040020014B83F82C
S2140005002900704790040020014B83F82B007047A9
S2140005109004002000487047900400200B0A0170E9
S21400052043700B0C090E8370C170704738B5437A60
S21400053005460C463BB94A7AEAB900680B68C31A06
S2140005405842584138BD022B15D14B7A022B12D196
S21400055008220AF0EDFF70B92B7A207A83420CD07D
S214000560013BDBB2FD2B08D80138C0B2FD2894BF92
S21400057000200120E6E70020E4E70120E2E7000093
S2140005802DE9F843174E326EF36E12EA030800D5D3
S214000590FEE7154CDFF854900127002518EA070FF0
S2140005A016D02368B7669BB1A16862680131A16066
S2140005B028469847637B012B0AD148B909EB4513B7
S2140005C0197B1A7F60F3410160F3410219731A77B1
S2140005D00135082D4FEA470704F11004DED1BDE8C7
S2140005E0F88300BF00200E40BC0400203C0500201D
S2140005F070B5094E0446012504B970BD94FAA4F0FE
S214000600B0FA80F005FA00F324EA030456F8203026
S214000610002BF1D09847EFE73C060020054B4FF43F
S2140006208022C3F880211A604FF48062C3F88021CC
S2140006301A60704700E100E038B504460D4600F049
S214000640C8FE034B43F82450BDE8384000F0C5BE52
S2140006503C060020074BD3F82804D3F81C2410408F
S21400066020F42A5020F02A004004400CC3F824044A
S214000670FFF7BEBF00A00040074BD3F82804D3F80E
S2140006801C24104020F4AA4020F055000004000C62
S214000690C3F82404FFF7ACBF00A000402DE9F84FD4
S2140006A0284C4FF0000A04F1A00580464FF00009E0
S2140006B04FF0010B237F84F81DA06BB1D4E9002313
S2140006C0994508BF9045104619460AD2B2EB080075
S2140006D063EB0901C4E900012834AC42EAD1BDE865
S2140006E0F88FE37F33B92377A369002BF4D084F81F
S2140006F01DB0F1E7D4E90267B8EB000069EB010131
S21400070032463B460AF044FDB01A67EB0301236904
S2140007106269002BC4E900010BDD13441D2B6361E5
S214000720E2D9461C41F100071E3BC4E9006763613D
S214000730DAE7D31A1D2B6361D6D910F1FF3641F1E3
S214000740FF37F1E78806002038B5074C0025637FA1
S2140007501BB1A369216A284698470135042D04F188
S2140007602804F4D138BD00BF88060020064B5A6A1C
S21400077099690A40D20705D501221A62034A13680E
S21400078001331360704700BF002004402807002094
S214000790F0B5194E00214FF0FF324FF0FF337418BA
S2140007A0257F3DB1D4E900459D4208BF94423CBF39
S2140007B022462B462831A029F1D1104900240C707E
S2140007C05C1C08BFB2F1FF3F0C4614D000279F42C6
S2140007D00B496FF0640608BF9642086038BF324681
S2140007E00849042502440D6201234A6523704B6ABA
S2140007F043F004034B62F0BD880600208406002008
S21400080080060020002004402DE9F8431A4C00F032
S214000810E0FD626AA1690A4022F005015307054619
S214000820216221D5154AA768154EDFF85890012198
S21400083011709046636A23F0040363623068381AC6
S214000840FFF72CFFFFF780FF3846FFF7A1FF32685F
S214000850A768636DB91A9B1A99F800200AB19942E5
S214000860E8D2002388F80030FFF780FF2846BDE86E
S214000870F84300F0B2BD00BF002004407C06002014
S214000880800600208406002008B5034B1B6803B1D1
S2140008909847012008BD00BF3007002038B5144D2A
S2140008A02A68044632B9631E032B0FD8DFE803F02C
S2140008B00814181C90470028F5D10446204638BD79
S2140008C00C4A136923F00403136130BF6B68002BD6
S2140008D0F4D020469847F1E7002000F0ADFEF5E79B
S2140008E0002000F0C7FEF1E700F0F8FEEEE700BFDC
S2140008F03407002000ED00E00B4B10B518600B4CE1
S2140009000B4BC4E900310B4B00221A705A7001F0F1
S214000910E3F9C30307D501F0D9F963681BB10420D6
S214000920BDE81040184710BD3007002034070020EF
S214000930890800002C0700200238C3B2012B04D817
S214000940024A135C0BB1013B135470472C0700207E
S214000950054B1A782AB95B78002B0CBF03200220BF
S21400096070470120704700BF2C070020F8B500F044
S21400097029FD0646FFF7ECFF0238C0B2012801D871
S21400098000F0A8FE00250E4F2C46FFF7E1FF431EA1
S214000990DBB2022B02D8FFF781FF0446BB6813B117
S2140009A0204698470546EB07EFD4A31EDBB2012B83
S2140009B001D800F091FE304600F008FD2046F8BD54
S2140009C0340700202C48F0B5002203682B4D114652
S2140009D054592CB11E68AC18002E36D1234601217E
S2140009E00832282AF4D101B103602549254E0B6848
S2140009F00022144695592DB11F68B518002F2BD12B
S214000A002B4601240832282AF4D104B10B60006872
S214000A101D4B026842B3DA69007922F0FF020243F6
S214000A20DA611A6B42F0804209681A630A68164B4C
S214000A30F2B1DA69097922F47F4242EA0122DA61E8
S214000A401A6B42F000421A63F0BD1E792779B7424E
S214000A5084BF23460121C3E71F7995F804C0BC452F
S214000A603CBF2B460124CDE71A6B22F08042DBE721
S214000A701A6B22F00042E6E7440700204C070020ED
S214000A80480700207407002000300E40064B186A06
S214000A90C0B20523C000B0FBF3F0044B1B68181A65
S214000AA000F3070040B2704700300E4040070020B9
S214000AB010B5144C226B616A0A4010D5124B1B68A5
S214000AC01A682AB1002119605960FFF7DFFF9047C6
S214000AD04FF00043E362BDE81040FFF773BF5300DA
S214000AE0F9D50A4B1B681A6832B1002119605960A3
S214000AF0FFF7CCFF01219047024B4FF08042DA62AD
S214000B00E9E700BF00300E404807002044070020F9
S214000B10FFF7CEBF044BDA68D20604D510225A611E
S214000B20024B01221A707047008001409C0700208B
S214000B300C4B984210D90C4B984210D90222012334
S214000B400A490B600A49D1F8003123F0807343EA62
S214000B500263C1F80031704700221346F0E7012215
S214000B60FBE700BF0048E8010090D0034000C84300
S214000B7000400E400E4B30B50E4C5B68C9B20023E9
S214000B8004EBC30215798D4203D154F833508542E5
S214000B900BD20133052BF3D1032205494B6823F012
S214000BA0407343EA02634B6030BD5279F5E700BFFD
S214000BB000000E40C0C5000038B5074C41F6713342
S214000BC0256C236401F07EF90021FFF7D3FF0DB1F9
S214000BD00023236438BD00BF00000E40044BD3F84A
S214000BE04421D20703D4D3F840211042FBD17047EA
S214000BF000400E400C4AD2F89030516A0B4B21F060
S214000C00300141F0100110B55162146BC0F3C311EE
S214000C1003310F2903EA040328BF0F21034343EAE5
S214000C200173136310BD00BF00400E4000F8FF0FB5
S214000C30044A1368002BFCD1034B5868C0F30140EC
S214000C40704700BFC800C64300300E4038B5054C9C
S214000C5041F67133256C2364FFF78CFF0DB100233A
S214000C60236438BD00000E40C0F30322013A38B5B5
S214000C700546092A13D8DFE802F0231312120516D8
S214000C8019121C20104C0020C5F3043508B1FFF7DC
S214000C90A5FF04F1047405EBC404A400216038BD6C
S214000CA000200A4CF0E70120094CEDE71020094C23
S214000CB0EAE74FF48030084CE6E70020074CE3E70D
S214000CC00020074CE0E700BFB0400E40C0400E409A
S214000CD0E0400E40E8400E40F0400E4050410E40CE
S214000CE000400E4000F00F000138072848D8DFE823
S214000CF000F0040F1947232D4735244BD3F89430C2
S214000D0003F00703023B052B3CD8214AD05C704712
S214000D101E4BD3F8803003F00703013B032B33D878
S214000D201C4AF3E7194BD3F8843003F00703013B62
S214000D30032B29D8184AE9E7144BD3F8883003F078
S214000D400703013B032B1FD8144ADFE70F4B1B6F2B
S214000D5013F0010F14BF0920072070470B4BD3F880
S214000D605C3103F03003202B06D0302B06D0102B3E
S214000D700CBF0720012070470420704708207047EA
S214000D8000207047052070470120704700400E4045
S214000D90B0C50000B6C50000BAC50000B6C5000064
S214000DA008B50146FFF79EFF1B4B994211D01B4B1F
S214000DB0994212D01A4B994204D11A4BD3F88000AC
S214000DC000F007000138032824D8DFE800F00A0EF8
S214000DD01612144BD3F88400F2E7124BD3F88800AF
S214000DE0EEE7BDE8084001F0CBB8BDE8084001F0EA
S214000DF0CDB8BDE8084001F0C6B801F08BF8094B45
S214000E00D3F80031C3F300635A1C01239340B0FBB0
S214000E10F3F008BD0020FCE70300200005002400D6
S214000E2002001E0000400E4000F47810B0F5A01F2F
S214000E3008B56CD021D8B0F5202F07D00AD8B0F569
S214000E40003F59D0B0F5802F4BD0A8BBBDE8084076
S214000E5001F03CB8B0F5602F00F08380B0F5801F3D
S214000E6000F08780B0F5402F26D101F02FF8474BD1
S214000E70D3F81431C3F304233AE0B0F5001F59D079
S214000E8013D8B0F5D01F57D0B0F5F01F3AD0B0F554
S214000E90B01F11D13E48FFF783FF3C4BD3F820210B
S214000EA002F00F020123934023E0B0F5381F38D03C
S214000EB004D8B0F5101F52D0002008BDB0F5401F72
S214000EC043D0B0F5481FF7D13248FFF70BFF07288D
S214000ED04FD0082850D00428EED1BDE8084001F0D5
S214000EE02BB800F0F3FF294BD3F80C31C3F30823DB
S214000EF00133B0FBF3F0E0E700F0E8FF234BD3F854
S214000F000831F3E72248BDE80840FFF749BF22480A
S214000F10FFF746FF1D4BD3F8303103F00303D840EC
S214000F20CBE71B48FFF73CFF184BD3F82031C3F341
S214000F300113F4E71948E6E71848FFF731FF134BAB
S214000F40D3F82821C2F30112ACE71448FFF728FFB4
S214000F500E4BD3F82831C3F301231A1DA2E70E481F
S214000F60D1E70F48FFF7BEFE072802D00928A3D115
S214000F706CE70C4B1868A0E700F0A8FF034BD3F80B
S214000F800031C3F3042303FB000096E700400E4045
S214000F9002001E00B80032000500240003002000F6
S214000FA006000E00000000200E4B5A6A12F0300FAA
S214000FB004D0202913D0302900D011B94FF44002B4
S214000FC000E0094AD3F8901032EA0101FAD1520241
S214000FD046BFD3F8A000C0F38020012070474FF42E
S214000FE00002EFE700400E40FF33E10702280AD177
S214000FF029B1064B4FF48060C3F8A800596612B1B9
S2140010000220FFF7D1BF0120704700BF00400E400E
S214001010F8B5042850D8DFE800F00A03116F740012
S2140010208026402406230725002951D048E04FF4A7
S21400103000764FF4807408230925F5E7002944D08C
S214001040324C636A13F0300F37D1314BDB6B636A77
S214001050DB0705D5636A23F0300343F010036362B1
S214001060042402230325294E34662A4E33449B006B
S2140010701F68002FFCD0FAB13544AD002B68002B5A
S214001080FCD0022818D1B9B1204E716A11F00101C6
S21400109018D001222021FFF7A9FFD6F89C70012264
S2140010A000210220FFF7B4FFC7F30A00FFF7A2FDF6
S2140010B034662B68002BFCD0F8BD042402230325DD
S2140010C00021D0E7FFF770FFE7E708260223032595
S2140010D00E4901200E6600FA03F3D1F8900018427C
S2140010E0FBD1002AE8D00123084A03FA05F5D2F816
S2140010F090302B42FBD1DFE7012402260023254651
S21400110092E720261024042305258DE700400E4094
S21400111000300E408004F210112870B506460C46CA
S21400112026D1042912D100F007FF0546A8B10021F8
S214001130284600F015FB06F00F06013E072E72D873
S214001140DFE806F023186D716B8B7196052904D1C4
S214001150624B1D68624B9D42E9D8023C0A2C62D85D
S214001160DFE804F01E51434A616161616155B700D2
S2140011700025E0E75B4D013C092C54D8DFE804F07D
S2140011806B545B53536253535351023C0A2C4AD858
S214001190DFE804F0073A2C3349494949493E410003
S2140011A000250020042401221146FFF731FFFFF737
S2140011B003FD1DB14C4A1368002BFCD14B4B4C4829
S2140011C05C67FFF731FEFFF7B3FC00F0A3FE0446B2
S2140011D0FFF72EFD01462046FFF738FD1DBB2846CB
S2140011E00121BDE8704000F0BBBA00254148FFF77A
S2140011F09FFC02200446D6E700253E48FFF798FCF1
S21400120001240320CFE7002501200324CBE7002597
S21400121003200524C7E70724C9E7374DABE7374D5A
S214001220A9E704232B6070BD012211460020FFF7BA
S214001230EFFE0223F6E7012211461046FFF7E8FE0E
S2140012400123EFE700F066FEFFF772FC2C4B01224D
S2140012501A600323E6E70023E4E7072C04D0092CF2
S214001260E1D1224B012201E0204B00221A67DAE787
S214001270013C072CD7D801A353F824F0CF12000066
S2140012802712000027120000C112000027120000DB
S21400129027120000B31200009D120000032213491B
S2140012A0D1F85C3123F0300343EA0213C1F85C3115
S2140012B0B9E7012211460420FFF7AAFE0122EEE755
S2140012C0012211460220FFF7A3FE0222E7E70022D2
S2140012D0E5E7FFF771FC002507246FE70C00002008
S2140012E0002D310180400E40C800C64300400E402D
S2140012F000250A000148E80188400E4084400E4060
S2140013000816C84310B504461120FFF7EBFC01226F
S21400131000210220FFF77CFE174A217C536A23F047
S2140013200103022908BF43F001035362134B2178DF
S2140013301960637AA18843EAC123D362136BA07A4B
S214001340217A03F07F630343E08843EAC02343EA3D
S214001350C11303310F2928BF0F2143EA017313631A
S214001360A37B617B1B0143EA0133E17B0B43217BBB
S21400137043EA0143536310BD00400E40A004C84337
S214001380014638B51120FFF7ADFC0C4D0C4BAA6B8F
S2140013900C7813401C434B7844EAC3248B7844EA09
S2140013A00364CB7844EA0324AB6BA34205D0002148
S2140013B001220846FFF72CFEAC6338BD00400E4005
S2140013C080E4FFF8EFF3108072B6704700B962B69B
S2140013D07047EFF3108072B67047FFF7F7BF000054
S2140013E0024A1368002BFCD1704700BFC800C643F2
S2140013F042EA032340F2011293422BD0B3F5817FD9
S21400140008D2012B1DD030D3B3F5807F31D0002217
S21400141013461CE040F20122934222D006D8B3F5D0
S214001420007FF4D1174BD3F870310DE0B3F5407F51
S21400143023D040F201329342E9D1124BD3F87831EF
S2140014400BE0104BD3F87431C3F30722DBB2036012
S2140014500A6070470B4BD3F874311A0EC3F3074378
S214001460F5E7084BD3F87831EEE7064BD3F86C3146
S214001470EAE7044BD3F86C31EFE7024BD3F8703150
S214001480EBE700BFB081E00F08B5FFF7A9FF084BF8
S21400149019685A68C1F30121C2F3014291421A68E1
S2140014A08CBF42F0100222F010021A6008BD00BF86
S2140014B000300E40064B1B68DB0608D5054B1B6943
S2140014C0C3F30443082B02BF034B044A1A60704759
S2140014D000300E4000400E400C000020C0EA210103
S2140014E0154B0228D3F8803113D0032814D00128D6
S2140014F014BFDBB2C3F307231B0323F47042B1B956
S214001500BAB90E49CA6E22F470421343CB66012064
S2140015107047C3F30743EFE71B0EEDE70749D1F823
S214001520EC2022F470421343C1F8EC30EFE7002AB7
S214001530F4D00020704700BFB081E00F00300E40AE
S21400154038B5234B234D1B7823492448C3F10202A8
S214001550102393402B6145F60E03D1F88041C1F865
S2140015608031036823F0AA03DB05DB0D0B66FFF76B
S21400157037FF2B6813F0100F04F00104054614D053
S214001580D1F84031DA01FBD4154B1B680B61154BC3
S214001590197805290DD1144B1868FFF721FF0D4B5C
S2140015A05968C1F30141FFF751FB0E4B1978052925
S2140015B002D01120FFF7B0FD2B68DB075EBF064B9D
S2140015C002221A661CB1044B0022C3F8802138BDE3
S2140015D0B107002000300E4000400E40A00700205B
S2140015E0AC070020AA0700200C00002010B50B4C0A
S2140015F00B4BD4F890201A601120FFF773FB094BB1
S2140016001870FFF7EDFE084B084A5B68C3F301430A
S2140016101370074B22691A6010BD00BF00400E40D1
S214001620A0070020AA07002000300E40B1070020C7
S214001630AC0700207047704710B5044608B1FFF7A6
S214001640D5FFFFF721FF0A4A136943F0040313612D
S214001650FFF7F0FF30BFFFF7EEFF1CB1BDE810400C
S214001660FFF76EBFFFF726FFBDE8104000F052BC44
S21400167000ED00E010B5044608B1FFF7B7FFFFF72E
S21400168003FF124BD3F8802145F60E01D207C3F8AC
S214001690801148BF00224FF42071196648BFC3F876
S2140016A080210B4A136943F004031361FFF7C2FF5E
S2140016B030BFFFF7C0FF1CB1BDE81040FFF740BFCA
S2140016C0FFF7F8FEBDE8104000F024BC00400E40D6
S2140016D000ED00E0FFF78ABFFFF732BF0A4B9A69BA
S2140016E0996922F4403242F4003241F440314AF61D
S2140016F0E85098609A6199619A6199619A619961D6
S2140017009A6199619A61704700300E40F8B5124BA5
S214001710124DD3F8003104460F4600F0D7FB0646BC
S214001720FFF75EFE6A68C2F30142944213D0022CB1
S21400173002D12146FFF78AFAC4F102021023934031
S2140017402B610FB1FFF74CFE2CB921463046BDE8A1
S214001750F840FFF77BBAF8BD00400E4000300E4060
S21400176038B50C4B0D46D3F8004128B900F0AEFB57
S214001770C4F3042404FB0000074B1B7829463BB146
S214001780064B984204D80220BDE83840FFF7BEBF9B
S2140017900020F9E700400E40B0070020FF2C310182
S2140017A0224B4AF6E85210B5596B5A639A6FD40723
S2140017B0FCD41B6C13F003031EBF1D4A01241460E7
S2140017C0834203D108B91A4B186010BD032B17D0FB
S2140017D0B3B1164A1446936FDB07FCD4136C23F0A0
S2140017E0030303431364A36F13F00103FBD100301C
S2140017F00F4A18BF01200129106008BF6363E4E7A1
S214001800431E012BE5D8094B4FF40022DA629A6F8B
S214001810D207FCD41A6C22F0030242F001021A64CA
S214001820024A536A1C03FCD5D3E700BF00300E40C3
S214001830B40AC6432DE9F04F002389B0CDE9023340
S214001840CDE90433CDE90633A0F5E163B3F5966F31
S21400185005460191934603D9002009B0BDE8F08FF4
S2140018604D4BB0F5E16F8CBF4FF0010A4FF0000A08
S214001870D3F8683100F083801A0EC3F3074307924B
S21400188004934FF496694FF4E164DFF81081D8F8BA
S2140018904C70C7F301773B46524605A902A8FFF7EE
S2140018A0A7FDD8F8EC60C6F301263346524606A9D3
S2140018B003A8FFF79DFD0798049A2C1B811A614325
S2140018C0B1FBF9F3D1182CBF012300238842C3D300
S2140018D0002BC1D1069A0398131A6343B3FBF9F39E
S2140018E010EB030A2CBF012300235245B4D3002B70
S2140018F0B2D1059B029A981A4443B4FBF9F912EB4D
S21400190009092CBF012000204B45A5D30028A3D1F0
S214001910BBF1000F0ED0D8F85C3023F4FE4323F062
S2140019200203B5F5E16F43EA012318BF0220034323
S214001930C8F85C30019B63B300213846FFF7D0FD42
S214001940002889D001213046FFF7CAFD002883D041
S214001950124A536ED14538BFD14623F4FF73B9F10E
S214001960E70F23F0010328BF4FF0E709B5F5E16F55
S21400197018BF43F0010343EA490353666DE7C3F318
S2140019800722DBB2079204934FF416794FF496645D
S2140019907BE7012061E700BFB081E00F00300E401A
S2140019A0304B1A6FD96CC90702F0070242D5012ADC
S2140019B040D9132851D9143813288CBF1023082374
S2140019C02849013BCA6C180322F47F4240EA0323ED
S2140019D01343CB64244BCA6C1B88C2F30322283300
S2140019E0013202EB820003EB5303B3FBF0F3C86C47
S2140019F0013B072B20F0EE6028BF072340F4801041
S214001A0040EA0363CB64194BB3F90030002B10DBBC
S214001A102833500800EB420203EB5303B3FBF2F308
S214001A200A6D072B28BF072322F0700242EA031331
S214001A300B657047DB6CD90706D4012A04D8092841
S214001A400BD90A380928B8E7064BDB6C13F00103FC
S214001A50B6D0012A03D82728AFE70423B0E700232F
S214001A60AEE700BF00300E40A6070020A807002003
S214001A70054A064B1B68136F23F007031843044BF5
S214001A8010671888FFF78CBF00300E408009C643E9
S214001A90A407002038B5364B02229A639B6B03F0EE
S214001AA00F039342044602D00025284638BDC1885D
S214001AB0B0F90C504A294ED9B1F5FA7F4DD340F60D
S214001AC0C313994294BF4FF000514FF0405128483D
S214001AD0C36C23F0405323F00103002DA8BF43F04E
S214001AE001030B43C364D0F8EC3043F44073C0F8F2
S214001AF0EC30C36E43F08073C3661E4B186800B1AB
S214001B000420FFF7B5FF1C4B218919801B4BB4F945
S214001B100C201A801A4BA0881880FFF741FFA37B81
S214001B20F3B1012B20D0012211466088FFF782FE18
S214001B3005460028B8D00E4A6078D36B43F480631D
S214001B40D363FFF72DFEA37AA3F12002534253413D
S214001B500C4A1360A9E70021B9E74FF08051B6E7B9
S214001B60034B094A9A65DEE7014B084AFAE700BFCD
S214001B7000300E408009C643A6070020A8070020B4
S214001B80A40700209407C64377402057372110B794
S214001B90072A70B501F003014FF00F0523D8960011
S214001BA01A4CB540256004F10074B0402060032054
S214001BB0B04001FA06F61649086001F100710E60A1
S214001BC01449114489000B609DF81030C1F880302C
S214001BD0012303FA02F2104BC3F824249DF81430B4
S214001BE0C1F8003370BDA2F10804A4000B4EA54056
S214001BF035600B4DA04028600320A04001FA04F495
S214001C000849086001F100710C60D9E700A400449F
S214001C1008A400448020851000A0004004A40044CE
S214001C2004A400460CA40044F0B54AB130261E4C6D
S214001C30012546438D4034440BB304F1C06425604F
S214001C403024444304F18044072904F5204419D87D
S214001C5065688E000F27B74025EA070502FA06F6E4
S214001C603543656052B9012202FA01F13022504331
S214001C700D4A0244A3B102F1C0621160F0BD04F146
S214001C808064DCE701F18045083DA668AD000F27BB
S214001C90AF4026EA070602FA05F53543A560E1E7F8
S214001CA002F18062E9E700BF0CA00040054B5A68CD
S214001CB05B68054B41F671321A649A6822F001029D
S214001CC09A60704700300E4000000E40014B012223
S214001CD09A60704700500E40124BF0B55C68124D8B
S214001CE0124E002318463768EA187F0751685A597B
S214001CF008D4B2F5806F03D00DD8B2F5007F01D1BD
S214001D0041F48071144202D0214208BF10430833C8
S214001D10482BE8D1F0BDB2F5006FF1D0B2F5803FA8
S214001D20EDE700BF00500E40E8C50000E841E00FB8
S214001D300B4A536911699B0003F03C03C1F3811100
S214001D400B438370136903F03F0343709369D269B2
S214001D5003F0F003C2F3031213430370704700BF8F
S214001D60D0FF0FE070B5054616461C4619B9144854
S214001D70FFF75AF80146202C08D001D8ECB170BD08
S214001D80402C18D0602CFAD1042200E0082206FB72
S214001D9002F35A0802EB4112B2FBF3F2094B203A67
S214001DA003EAC2022B6823F060032B602B681C43F7
S214001DB02C606A61E3E70622E9E71022E7E700BF46
S214001DC040410500F8FF7F00CB435B0003F00A03A9
S214001DD0C360C1607047000040F6AA63C36041F26A
S214001DE00502002303604260104A83604361C364B7
S214001DF08264036643678367C3670D4B0D4A984248
S214001E0009D0904207D003F50063984203D003F54B
S214001E108063984201D100230365002390428365C6
S214001E2002D0054A904200D1C3657047F9FF010011
S214001E300000014000040140000C014038B5054692
S214001E400C46FFF7C9FF8B7C1BB1036843F0804349
S214001E500360E37C1BB1237D43F08003AB65228ADD
S214001E60637B1343E28913436B60D4E90112237B3F
S214001E702846FFF777FF637D1BB12B6843F480335A
S214001E802B60A37DE27D1B07120502F4E00203F03F
S214001E90E04313432B666B6F23F030036B676A6F68
S214001EA0237E13436B672378EB6038BD03691B06FC
S214001EB0FCD5C069C0B2704703695B06FCD54163B8
S214001EC0704700000048704700F049020D4AD2F8FB
S214001ED0943003F00703032B11D0042B03D0022BFE
S214001EE00BD1094B00E0094B1868D2F80031C3F358
S214001EF004230133B0FBF3F07047054BF4E74FF4CF
S214001F000040F2E700400E400800002010000020CD
S214001F100C00002008B5FFF7D9FF054BD3F80831B1
S214001F20C3F308230133B0FBF3F0024B186008BD7F
S214001F3000400E4004000020014B1868704700BFA8
S214001F4008000020054B1860054BD3F8943003F0CA
S214001F500703022B01D1FFF7DDBF70470800002002
S214001F6000400E40044B054A9A60D3F8882042F49D
S214001F707002C3F88820704700ED00E00000000003
S214001F804FF4004070474FF47A707047014B186862
S214001F90704700BF10000020054B1860054BD3F8B3
S214001FA0943003F00703042B01D1FFF7B3BF70474B
S214001FB01000002000400E400020704770470000D0
S214001FC00E4B1A6804331B681AB1B3FA83F35B0925
S214001FD073B1062809D10A4B1A680A4B1A600A4BD5
S214001FE001221A70094B186070470728F7D070470F
S214001FF0062804BF034A1360F9E700BF982114427D
S214002000B4070020B8070020C0070020BC07002047
S21400201004F018B92DE9F04180460C461646F3B98F
S214002020124D134F134A2B4639464AF6A11004F0B8
S2140020303BF960B104F092FA404600F0C7F93978EF
S214002040234632464AF6A11004F0DCF904E0324694
S2140020502968204609F07BFA0020BDE8F081012BB4
S214002060FAD10B4602490978ECE700BFC407002006
S214002070C1070020C2070020044B01229A61044ACF
S214002080136801331360BFF34F8F704700E00140C1
S214002090B40700202DE9F043042285B00123052172
S2140020A007460020FFF7C0FD00F0D2F84748484E2C
S2140020B0DFF84491DFF8448109F012FB454809F047
S2140020C00FFB01214448FEF7CFFD03238DF80B30AC
S2140020D00823012400250DEB03008DF809508DF828
S2140020E00C508DF808508DF80D308DF80A4000F031
S2140020F04FFF3A4BC3F884415C60394B9C61DA6908
S21400210022F00102DA610621234602220520FFF7AB
S2140021108BFD2346022207210520FFF785FDFEF7EB
S2140021207DFA30490620FEF787FA2E490720FEF78B
S21400213083FA0622114623460520CDE90044FFF720
S21400214027FD07222B46CDE9004411460520FFF760
S2140021501FFD254B35601D701D462B7873B1336807
S214002160062B26D1484609F0BBFA3846FEF78AF811
S214002170384600F04DF9002333602B701B4AD8F820
S2140021800030116851B15B1A282B07D90023184874
S214002190136009F0A5FA3846FEF760F8104B9C610C
S2140021A0DA6942F00102DA61124B1C60FEF7DEFBD0
S2140021B0D3E7072BDCD122238DF8083000940123C7
S2140021C002AA3946002000F029FDD1E730C60000FB
S2140021D0BC07002047C6000000C2040000E100E083
S2140021E000E00140C11F0000C0070020B807002023
S2140021F06DC6000000003C4256C60000B407002032
S2140022000F4803691B0670B514D50E4D2B68072BB7
S21400221011DC0D4C2668FFF749FE0C4B98552368D9
S214002220013323602B6801332B602368082B01D110
S2140022300023236070BDC36C23F00403C364F9E776
S21400224000000140D4070020DC070020CA07002059
S21400225030B5012189B02648264DFEF705FD01213F
S2140022602548FEF701FD0021084601230422FFF75A
S214002270DBFC0123022219460020FFF7D5FC0FCD18
S21400228001AC0FC495E8070084E8070001211B484D
S2140022901B4CFEF7E9FC08A9002501F81C5D20464A
S2140022A0FFF7CCFD03236367A26F22F4F85222F0F7
S2140022B01F020423A267A364124B4FF48051C3F895
S2140022C08011E26C42F00402E264204619600521A7
S2140022D0FFF77AFD0C4B186802222B4629468068C9
S2140022E009F026FA094B01221A7009B030BD00BF6A
S2140022F04041050088C6000000350A000042040080
S2140023000000014000E100E0C0010020C9070020F5
S214002310134B1B7810B50BB9FFF79AFFFFF759F868
S214002320104B1A68002A18DD0F4A104C1168645CBE
S2140023301168013111601168082904BF002111607D
S2140023401A68013A1A600A4AD36C43F00403E4B2EE
S214002350D364FFF742F8204610BD4FF0FF34F8E78D
S214002360C9070020D4070020D8070020CA0700208D
S214002370000001400A4B1B7810B504460BB9FFF766
S21400238067FF084B1B782BB10A2C03D10D2106489A
S214002390FFF792FD21460448FFF78EFD204610BD4C
S2140023A0C9070020C807002000000140FFF730BE24
S2140023B010B5054C2060FEF753F821460123202275
S2140023C0BDE81040FFF726BEE0070020416A10B5C2
S2140023D004460D48FEF7A2F80C4A04F1120304F175
S2140023E0220153F8040B42F8040B8B42F9D1064B3A
S2140023F0227C1A75627C5A7594F829209A7594F88E
S2140024002B20DA7510BD00BFE0070020E40700208F
S21400241010B50446FFF7DAFF2046012320220249C2
S214002420BDE81040FFF7F6BDE007002038B5104CB9
S2140024300023202221460546FFF7ECFD234604F143
S214002440140153F8042B6A6205F1120253F8040BC8
S21400245042F8040B8B42F9D1237D2B74637D6B7499
S214002460A37D85F82930E37D85F82B3038BD00BF85
S214002470E00700202DE9F0411D461B7B16462A7C0E
S214002480002B04460F460CBF0C204C20697B0AB973
S214002490012901D140F080006B7A43EAC2035BB2A7
S2140024A022B16A7CD20002F020021343012262703D
S2140024B00822A2706A6AE27000294FF0FF022271B9
S2140024C06271A271E2710CBF00214021020643BF77
S2140024D00B4363724FF00A084FF009082072296810
S2140024E004EB0800FEF71AF82B7C023B012B08F1E0
S2140024F004021CD8A018696AFEF710F808F1080252
S2140025000423B018C0B20133034423703B78E22B97
S21400251007D194F90830002BBEBF637A23F040033E
S2140025206372002314449E4203DCBDE8F08100235E
S214002530E7E7FA5CE2540133F5E737B50C464BB1F2
S214002540022B0AD102F10A03DBB2082200F00AFAD3
S2140025500434E4B2204603B030BD032BFAD10A237C
S2140025600093082300F020FAF2E730B591F82450E3
S214002570097BC57000294FF0010141704FF008013A
S21400258081704FF0FF01017141718171C17108BF07
S2140025900D2403F10A0118BF4D24047200F8081B2D
S2140025A011468C1AA34202DC0933D8B230BD11F8AA
S2140025B0014B00F8014FF4E770B5049D0C461E462B
S2140025C0114660B92B4632462046FFF753FF2B7C58
S2140025D0324601462046BDE87040FFF7AEBF0128F0
S2140025E005D129462046BDE87040FFF7BEBF002053
S2140025F070BD2DE9FF470778A7F102095FFA89F950
S214002600B9F1070F064624D98278437803EB0223F4
S2140026109BB240F6014293421ED040F6010293421E
S21400262017D10824325DC2F38203032B11D102F0C6
S2140026300308B8F1010F0CD8150604F101030DD5F7
S214002640F15CCB0904F1020403D0480609D5520612
S21400265007D504B0BDE8F0870E24E3E71C46002348
S21400266019460022C1F3C10A01F00705CDE901228F
S21400267003927BB175B9B8F1000F0ED133590193AF
S2140026800434E4B2FDF746FF014601A8FDF74EFF0D
S21400269018B9DEE7B8F1000FF4D0AAF10203012B57
S2140026A09DBF0434E4B204220022A3184B4527DC65
S2140026B07B1E06EB04091C1BA41AE4B26DB9B8F124
S2140026C0000F0AD1BAF1020F11D1A7F10D03DBB248
S2140026D000220721304600F00FFAB9F1000FB8D0FB
S2140026E0002CB6D02146484600F0E6FAB1E7BAF12B
S2140026F0030FF2D1A7F117020A23D2B20821E9E7A5
S214002700002DA6D1B8F1000FA3D14446C146D9E7A3
S214002710014B01221A7070470409002070B5002191
S214002720044602F0080050EA010318D0FEF74AFEFD
S2140027300546204604F0A8F9064600F04DFA324653
S2140027400146204604F09CF9044600F045FA21466E
S214002750FFF74FFF2846BDE87040FEF737BE70BD56
S214002760024B01460022186803F02ABF000800202A
S214002770024B01220021186803F016BF0008002053
S21400278070B50D4B86B00E461D68044630B100236A
S2140027901A46284603F00CFF60B1FEE7074A07CA50
S2140027A003AB83E80700009422463146284603F030
S2140027B003FFF1E706B070BD00080020A4C60000C5
S2140027C010B50A460C46014604480123006804F08A
S2140027D032F9844200D0FEE710BD00BF000800209A
S2140027E030B548494848494C91B003F0C7FE2546E5
S2140027F0206000B9FEE700238DF810304FF4E16347
S214002800ADF8123004A90A23ADF8143004F0BDF870
S214002810014600B1FEE7206804F0CBF8024600B19E
S214002820FEE780233A49206804F009F98028ADF8CD
S2140028300E0000D0FEE70DF10E023649206804F0C7
S21400284002F9BDF80E30802B00D100B1FEE74FF044
S2140028500111206804F0E6F800B1FEE70822002324
S214002860CDE900234FF0FF324FF0FF33206804F02D
S21400287073F800B1FEE710A940F2011321F8343DC9
S214002880206804F065F800B1FEE7206804F084F9DB
S21400289090BB206804F07CF9034600B1FEE71E4CAE
S2140028A00993206861688DF8283006AA03C2A068DC
S2140028B0106040F20112ADF82C20ADF82E2006AACA
S2140028C007CA0CAC84E807000F228DF83C2009A943
S2140028D0012228688DF83D20ADF82A308DF83E306C
S2140028E004F026F9024600B1FEE74FF6FF712868AD
S2140028F004F056F900B1FEE7084B1B7803B9FEE773
S21400290011B030BD11270000140000200008002080
S2140029108408002004080020B0C600000409002037
S21400292001460148FDF7FABD9D0900200146014811
S214002930FDF7F4BD9009002010B5084B024693F948
S214002940004007488023022100EB841001F095FB2D
S214002950003018BF0120404210BD00BF050900200E
S2140029600809002030B50D4C87B094F9004001935B
S214002970014402440A48049104250021009205956A
S214002980CDE902110D23074A00EB841001F0A5FBE8
S214002990003018BF0120404207B030BD05090020B6
S2140029A00809002095090020F0B59BB017469DF851
S2140029B08020114D9C1895F9005001920444014462
S2140029C0034404260D48059606AE04910093394646
S2140029D00D23CDE902460A4A00EB851001F07DFB87
S2140029E03A4605463146204608F0B1FD281C18BF79
S2140029F0012040421BB0F0BD050900200809002058
S214002A00950900202DE9F0438DB0904608AF026886
S214002A10079299460C463E4601F11003206861680D
S214002A20354603C508349C422E46F7D11046FFF7BC
S214002A3077FF0E48FFF780FF0D4B0E4893F90040D6
S214002A400D4A042107ABCDE9049101910093CDE92D
S214002A5002780D23102100EB841001F03EFB0030BD
S214002A6018BF012040420DB0BDE8F083BCC6000090
S214002A70050900200809002095090020F0B58DB052
S214002A801F680368069307AE0B46354601F1100C27
S214002A90186859682C4603C4083363452546F7D1A1
S214002AA013680B933846FFF741FF0F48FFF744FFC4
S214002AB00E4B0F4893F900400BAA04230492129A77
S214002AC00593019306ABCDE902620093094A0D23F4
S214002AD0102100EB841001F016FB003018BF012017
S214002AE040420DB0F0BD00BFBCC600000509002086
S214002AF00809002088090020F0B51546124CCA18AF
S214002B009BB086182A4494F900400193024401447D
S214002B1004270E48059706AF049200910D23294618
S214002B20CDE902670A4A00EB841001F0ECFA2A4667
S214002B3004463946304608F00AFD201C18BF01201E
S214002B4040421BB0F0BD00BF050900200809002068
S214002B50880900202DE9F843194BDFF8708000241F
S214002B60054618481C701646894601F082FA234628
S214002B70154C1A461A5503F8082001330D2BF9D1C7
S214002B8029681248FDF7CAFC29681148FDF7C6FCFB
S214002B90052700210C4888F80C70FDF7BFFC296853
S214002BA00C48FDF7BBFC30462773FFF7B9FE3046EE
S214002BB0FFF7BCFE4846BDE8F843FFF7BDBE00BFC2
S214002BC00509002008090020880900209509002032
S214002BD0990900208C09002000487047A2090020AF
S214002BE070B50C4615461E4650B9204600F0C6F88D
S214002BF02846FFF7B5FD00F081F80028FBD170BD30
S214002C0000F0BCF8002EF0D0FFF7D8F900F076F808
S214002C100028EAD00120FEF70FFDF7E72DE9F34183
S214002C200546486A9DF820800C463B2B00F10100C3
S214002C30A8BF3B2348621F461646FFF7B9FB606AEB
S214002C40FFF76EFE606AFFF771FE3B463246194993
S214002C5000942846FFF7B0FC81B21648FFF7B0FD97
S214002C6000254FF47A77FFF783FD03F02CFF94F8E6
S214002C702910064694F82800FFF782FDFFF778FD36
S214002C80637B7BB103F01FFF94F80EC0E17B94F8E2
S214002C902920301A0123794307FB0C00FFF7A0FF19
S214002CA0FFF766FD0135EBB29845DCD8002002B090
S214002CB0BDE8F081220A0020F8B50646E8B1E1B189
S214002CC00546013915F8017BCCB22A46214638461E
S214002CD0FFF772F988B9F02F09D0F32F0DD170786D
S214002CE000F00F000B30BDE8F840FDF79FBA29460C
S214002CF02046BDE8F840FDF7A1BAF8BD014B1878AC
S214002D00704700BFA20A002010B503210F48104CE0
S214002D10FEF702FA01210F48FDF7A6FF01210E4833
S214002D20FDF7A2FF20464FF6FF72002100F062F981
S214002D300A4B0B494FF000621A60E36A43F0040343
S214002D40E3622046BDE8104000F066B902001E00AF
S214002D500060044000250A008006160000E100E03E
S214002D60CCC60000034B04229A62034B00221A7062
S214002D70704700BF00600440A20A002038B50E4C21
S214002D8005460021204600F03EF90122002120469B
S214002D9000F07AF9ED0300212046084AB5FBF2F26E
S214002DA000F028F90423A3620121204600F02BF945
S214002DB0034B01221A7038BD0060044040420F00E9
S214002DC0A20A00207FB5094B6A4603F11006154695
S214002DD018685968144603C40833B3422246F7D12C
S214002DE02846FEF757FE04B070BD00BFDCC60000E4
S214002DF070B5284B86B001AA03F110061546186870
S214002E005968144603C40833B3422246F7D11B88D8
S214002E102380214B5A68120333D49B68C3F30803FC
S214002E202846ADF80A30FEF76DFA1C48FFF78AF818
S214002E301B4B18680090202368468DF80030FEF77C
S214002E409FFA4FF40040FFF7A7F801221146022030
S214002E50FEF7DEF804211120FEF75EF90022114687
S214002E600320FEF7D5F803210E48FEF755F9032197
S214002E700D48FEF751F903210C48FEF74DF906B050
S214002E8070BD0B4B1B884FF6FF72934208BF4FF482
S214002E90A573C5E7ECC60000B081E00F00F049025C
S214002EA0FEC6000002001E000300200005002400ED
S214002EB00001E00F08B5194B01225A64184BDB6C71
S214002EC01B0E0FD1174918484AF6E8520A600268E6
S214002ED042F0040202600B60144A136843F4005385
S214002EE0136001E0012BF7D0114A136A23F4441350
S214002EF043F488131362A2F58042136843F4807388
S214002F001360FFF75FFFFFF773FF0A4A136823F4A7
S214002F10E06343F40073136008BD00BF00000E407A
S214002F20B081E00F90310E4098310E4064310E4073
S214002F3000400E4000500E4008B501210448FDF741
S214002F4093FE00F009F8BDE80840FFF781B900BF1E
S214002F5000350A000020704708B501210A48FDF731
S214002F6083FE01210948FDF77FFE04221146002357
S214002F700520FEF759FE0521084600230422FEF729
S214002F8053FE002008BD00BF4041050000350A0082
S214002F9043790C4A03F03F0330B553604378C57855
S214002FA00478002B03794FEA431343EA850314BFE2
S214002FB00221002123430B431360034B82781A60DF
S214002FC030BD00BF00E0014080013C4270B5066A9B
S214002FD0056A046A036A102AC1E90065C1E902436A
S214002FE007D1056A046A026A036AC1E90454C1E9A2
S214002FF0062370BD11B1012903D07047103002605E
S21400300070471430FBE7436B9B07FCD411B10123D8
S214003010436070470223FBE730B50C783CB9836801
S214003020DB0704D5436B9D07FCD4022343604B7833
S2140030308D78002B14BF4FF480520022CB6805B960
S2140030401BB142F4007203B10361CB780BB142F4BA
S21400305080720B790BB142F040024B790BB142F013
S2140030608002CB798D79097A1B0143EA85030B43ED
S214003070134303603CB18368DA0704D4436B9B07B1
S214003080FCD40123436030BD11B1012903D0704741
S2140030901830026070471C30FBE708B500F002F8F5
S2140030A008BD00007FB5FFF705FFFFF745FF1422B8
S2140030B0002101A808F056FA02238DF804300B4BC5
S2140030C002934FF48373ADF80C300C22ADF8123037
S2140030D001A90D234FF0FF308DF80E208DF8143027
S2140030E003F0EEFC07B05DF804FB00BF006A1800B2
S2140030F000207047FEE74FF400534B6000207047F7
S2140031000120704700207047F8B50E468F180D4610
S214003110BD42A5EB060405D1002C08BF4FF0FF34D6
S2140031202046F8BDFFF7F4F8431CF5D005F8010B70
S214003130EEE70000044B1968024609B90349196016
S214003140186802441A607047A40A0020180E00206F
S21400315070B50E4615460C46A31B9D4201DC28465C
S21400316070BD14F8010BFFF705F9F5E74FF484720C
S214003170002108F0F7B920B100F5847300229842C8
S21400318000D1704702700130F9E70023F0B5C0E9BE
S214003190003300F10805EB540133B3F5807FFAD114
S2140031A00023073005F1FF0C1C469A4298BF002307
S2140031B010F8017FCE5C3C443444E4B284452E5D76
S2140031C0067003F101032F55EFD1F0BDF0B5D0E93D
S2140031D0005400F1080C00278F4203D1C0E90054C8
S2140031E00020F0BD0135EDB21CF805603444E4B2B1
S2140031F01CF804E00CF805E00CF804607644F6B21F
S21400320012F807E01CF8066086EA0E06DE5501375F
S214003210E2E7F0B50B681568061F00F13C0C56F89F
S214003220044F5C40C4F30743270E03F58973123737
S21400323050F8233050F827703B44C4F3072707F2B2
S2140032401227B44550F8277083EA0703E7B207F25F
S214003250123750F827703B4483EA05032546DED133
S214003260046C406C6340684008601360F0BD41F237
S2140032704802002108F076B928B100F582530833D9
S2140032800022984200D1704702700130F9E7000032
S214003290A2F12003B3F5D07F2DE9F743054659D8B0
S2140032A0530757D12E484FEAD209A84605F580574E
S2140032B02E460023C45806EB030C0433B3F5806F88
S2140032C0CCF84840F6D106F58066BE4200F5806030
S2140032D0EFD10024DFF88CE020460423002704F119
S2140032E0010C0C5D44EA0727E1458CBF64460024C8
S2140032F0013BF4D15EF82020574045F8207001309D
S2140033001228EAD10DF10809009349F8043D1C463D
S2140033104A4669462846FFF77CFF009B2B512B192F
S2140033200834019A5A60482CF2D1474680244A460F
S21400333069462846FFF76DFF009BBB64013C019B76
S214003340FB6407F10807F2D108F580684645ECD122
S214003350204601E06FF0150003B0BDE8F08300BF23
S2140033604CC7000004C70000F7B51468526824BABA
S21400337012BA06461D460094019200293CD100F17F
S2140033804401071D51F804396340C3F30744180E7F
S21400339004F58974123056F8244056F82000044488
S2140033A0C3F3072000F21220B94256F8200084EA40
S2140033B00004D8B200F2123056F82000044484EA22
S2140033C002041A46DED173685C4033685A40CDE981
S2140033D00024009BEB701A0E2A701A0C6A701A0AE8
S2140033E0019BAA701A0E2A711A0C6A7100201A0A1A
S2140033F0AA71EB7103B0F0BD01AA6946FFF709FF99
S214003400E7E72DE9F7431E46530780468946DDE980
S2140034100A5440D1A718C1B3013DA74237D0711E48
S214003420621E05F1080015F8013F11F801CF85422C
S21400343083EA0C0302F8013FF5D1234622464946AB
S2140034404046FFF791FF2368336063687360083473
S214003450E3E7286869686B4603C32A4623460021CB
S2140034604046FFF781FF631E711EE01D13F8012F13
S21400347011F801CF834282EA0C021A70F6D16B462D
S21400348003CB0835306071600834A742E1D10020D4
S21400349003B0BDE8F0836FF01700F9E72DE9F047B9
S2140034A00A9E1C6882469846DDE9085706EB020924
S2140034B021B34E4524D02CB92B462A46012150462E
S2140034C0FFF752FF2B5D17F8012B534006F8013B20
S2140034D02B55013404F00704EBE72CB92B462A469B
S2140034E001215046FFF740FF2B5D17F8012B534094
S2140034F006F8013B2A55013404F007044E45ECD18A
S214003500C8F800400020BDE8F0872DE9F84F0C9D74
S2140035101468DDE90A89834617461E4605EB010A4C
S214003520554503D13C600020BDE8F88F7CB9324693
S214003530434601215846FFF717FF06F1080212F826
S214003540013D0133DBB213700BB99642F7D118F880
S214003550043019F8012B0134534005F8013B04F000
S2140035600704DDE7F0B50B680468496840681B4D42
S2140035701B4F634048401B4CC3F3072114F801C09F
S214003580190E6E5CD9B2C3F30743795C41EA066153
S214003590154EF35C41EA0341C0F3072341EA0C21D0
S2140035A0FF5C030EF65CC3B2C0F30740EB5C205C26
S2140035B043EA066343EA004343EA072381EA3361AA
S2140035C0106883EA314381EA3321434083EA31239A
S2140035D01360536859405160F0BD00BF4CD70000DF
S2140035E04CDA00004CD900004CD800004FF48A7228
S2140035F0002107F0B7BF20B100F58A730022984279
S21400360000D1704702700130F9E700002DE9F04F55
S214003610C3B00EAF1446051D4022064688463846FF
S214003620002107F09FFF4FF488720021284607F01C
S21400363099FFC02C00F0F181B4F5807F00F0ED8199
S214003640802C40F0F3810323336000230193E208CB
S21400365000239A4240F0E581C02C09D10DF14703C2
S2140036600DF14F0113F8012FD2438B421A72F9D194
S214003670924B00215A78187893F804C0120442EA54
S2140036800062D8780243987842EA002202A80833FB
S214003690425013F8032C120442EA0C6213F801CCD1
S2140036A042EA0C0213F802CC0844083142EA0C2223
S2140036B030294260DED10DF17808402200214046D4
S2140036C007F050FF0022B918B85CCB7843EA0063D5
S2140036D04878897843EA004343EA012348F80230F1
S2140036E00432202AEFD11E9A229B534026931F9A1B
S2140036F0239B53402793209A249B53402893259A34
S214003700219B02A9534026A828AA2993FFF72AFF3F
S21400371004A926AA28A8FFF725FF25AB29A953F850
S214003720042F53F8200C8B4282EA00021A60F6D16E
S21400373028AA06A926A8FFF715FF26AA08A928A8DA
S214003740FFF710FF802C19D9269A229B53402A9304
S214003750279A239B53402B93289A249B53402C93C1
S214003760299A259B0AA953402AA82CAA2D93FFF72D
S214003770F9FE2AAA0CA92CA8FFF7F4FE1E9B2E938E
S2140037801F9B2F93209B3093219B3193019B4C4989
S2140037904FEA031E0EF1FF382EAB88441A464FF050
S2140037A00F0C894618F8011F11B30CF01F002F9E4E
S2140037B02E99C0F1200726FA07FA814081EA0A010D
S2140037C01161309E2F9926FA07FA814081EA0A0194
S2140037D051613099319E814026FA07FA81EA0A0142
S2140037E09161319981402E9820FA07F77940D1618E
S2140037F00CF10F0CBCF14B0F02F11002D2D1019963
S214003800304A4FF0500808FB0128002118F9010043
S214003810461C1CBF53F8212045F8202001311429EE
S214003820F4D1802C50D9229A2E92239A2F92249A41
S21400383030920EF1030A259A3192CA441A464FF086
S2140038400F0C1AF8011F11B30CF01F002F9E2E99B3
S214003850C0F1200726FA07FB814081EA0B011161BF
S214003860309E2F9926FA07FB814081EA0B015161B1
S2140038703099319E814026FA07FB81EA0B0191615F
S214003880319981402E9820FA07F77940D1610CF1E2
S2140038900F0CBCF14B0F02F11002D2D100212EAF5B
S2140038A008EB010292F91400421C1CBF57F82120B5
S2140038B045F8202001311429F2D105E04CDB000048
S2140038C01CDC00007CDB0000269A2E92279A2F92A2
S2140038D0289A30920EF1070A299A3192CA441A465B
S2140038E04FF00F0C1AF8011F11B30CF01F002F9E9B
S2140038F02E99C0F1200726FA07FB814081EA0B01CA
S2140039001161309E2F9926FA07FB814081EA0B0150
S21400391051613099319E814026FA07FB81EA0B01FE
S2140039209161319981402E9820FA07F77940D1614C
S2140039300CF10F0CBCF14B0F02F11002D2D100219A
S2140039402EAF08EB010292F92800461C1CBF57F860
S214003950212045F8202001311429F2D1802C3FD9AE
S2140039602A9A2E922B9A2F922C9A30920EF10B0EA8
S2140039702D9A3192F1440F2019F8012FE2B100F090
S2140039801F012E9A2F9FC1F12004E7408A407A40FB
S2140039901A612F9A309F8A40E7407A405A61309ADF
S2140039A0319F8A40E7407A409A61319A2E9F8A403A
S2140039B027FA04F46240DA610F304B2803F1100353
S2140039C0DAD100232EA908EB030292F93C20541CFE
S2140039D01CBF51F8230045F822000133142BF2D106
S2140039E0144B0199142202FB01320E460C235E434F
S2140039F0B6000023D156481C1EBF55F8210006EB22
S214003A008301491903F1010318BFC1F88000142B84
S214003A10F0D1002043B0BDE8F08F042333600123CB
S214003A2014E618F80310F954013312E66FF0230079
S214003A30F0E700BF3CDC0000F0B5C7B00D46164608
S214003A40044601A8FFF7D2FD2946324601A8FFF733
S214003A50DDFD014600283AD1019B23601A1F534220
S214003A605341D81C02AD80012A182858606050685F
S214003A70D568A060DB009068E060256104F1140062
S214003A80A2F1080603F116051C34103A976844F8AC
S214003A90087C013DD76844F8047CA2F1080204F1D2
S214003AA00804F3D103F1150200EBC2026FF0070021
S214003AB000FB0363A83B53F8100C906053F80C0C03
S214003AC0D06053F8080C53F8043C1061536101A809
S214003AD0FFF791FD084647B0F0BDF0B51D461368E8
S214003AE006681FBA53681CBA936819BAD3681ABA1C
S214003AF0436885B07B400093836863400193C36846
S214003B004B4002930369534000F1140403932EB311
S214003B1002AA21466846FFF725FD6A4604F1080119
S214003B2002A8FFF71FFD02AA04F110016846FFF77E
S214003B3019FD6A4604F1180102A8FFF713FD02AA50
S214003B4004F120016846FFF70DFD013E6A4604F1C8
S214003B50280102A8FFF706FD5EBB303423680298F2
S214003B600399009A584063685940A3685A40E3682E
S214003B70019CE8706340040E2C70040C6C70040A00
S214003B80080E2871080C6871E971080A110E29726E
S214003B90110C6972EA72110A1A0E2A731A0CA871AD
S214003BA06A7300201A0AAC70A972AA73EB7305B088
S214003BB0F0BD0099226B019B0A4083EAF273626BA8
S214003BC0019313434B40039A0093E36B029913430C
S214003BD04B40A16B02930B4082EAF373039340348D
S214003BE095E72DE9FF479846130781460E46DDE91F
S214003BF00C545BD1A718B9B3013DA74237D10026B4
S214003C002EE02B46EC4605F1100E18685968624601
S214003C1003C2083373459446F7D1234600212A464B
S214003C204846FFF75AFF631E08F1FF3104F10F0004
S214003C3013F8012F11F801CF834282EA0C021A70A2
S214003C40F6D1EC464246634603CB534510605160BE
S214003C509C4602F10802F6D110351034A742D0D1A6
S214003C60304604B0BDE8F0870DF1100AF6E708F11B
S214003C70FF31621E05F1100015F8013F11F801CF63
S214003C80854283EA0C0302F8013FF5D1234622461B
S214003C9031464846FFF721FF434604F1100254F828
S214003CA0041B43F8041B9442F9D1A6E76FF02506DF
S214003CB0D6E72DE9F0470A9E1C6882469846DDE95D
S214003CC0085706EB020921B34E4524D02CB92B46E3
S214003CD02A4601215046FFF700FF2B5D17F8012BFF
S214003CE0534006F8013B2B55013404F00F04EBE774
S214003CF02CB92B462A4601215046FFF7EEFE2B5DD7
S214003D0017F8012B534006F8013B2A55013404F0FE
S214003D100F044E45ECD1C8F800400020BDE8F087FF
S214003D202DE9F84F0C9D1468DDE90A89834617468D
S214003D301E4605EB010A554503D13C600020BDE850
S214003D40F88F7CB93246434601215846FFF7C5FE38
S214003D5006F1100212F8013D0133DBB213700BB905
S214003D609642F7D118F8043019F8012B0134534065
S214003D7005F8013B04F00F04DDE72DE9F04F95B0A0
S214003D8007460493249B043B0C2B89461646DDE924
S214003D901FB405D96FF00C03184615B0BDE8F08FB8
S214003DA0249BDB07F6D41E9B073B062BF2D8B4F504
S214003DB07F4FEFD81E9B249A0499DDB2C5F10F03FE
S214003DC0DBB2002CA2F1020203934FEA52020CBFB0
S214003DD000234023C5F10E05EDB243EAC2032B4390
S214003DE01E9A8DF820300DF1210007F0B0FB0DF182
S214003DF02F020CAB521BB04603F8018D9A424FEAD5
S214003E001828F9D1B8F1000FC4D10DF1300A1022EC
S214003E104146504607F0A6FB424608A812F80A306C
S214003E20115C4B4002F80A300132102AF6D107AB7B
S214003E30009351465346384600F0BCFA0346002825
S214003E40AAD1002C3CD114AC1E9A049904F8105D3B
S214003E500DF1410007F07BFB1E9B039A581C0021C6
S214003E60204407F07FFB01238DF84F300DF120082A
S214003E70002E40F083800DF14F0214AB551B03F863
S214003E80016D9D42FBD107AB08AD009310222B4677
S214003E902146384600F08EFA034600287FF47CAFB1
S214003EA002460CA9505CAC5C604050540132102AAB
S214003EB0F8D1DDE92302039307F049FB039B6BE788
S214003EC001460E2205900DF1220007F04BFB0E2C4A
S214003ED04FEA1422A04628BF4FF00E088DF8202087
S214003EE0594642460DF122008DF8214007F02FFB7F
S214003EF0059B0DF1200C1A465346D15C12F80C00B7
S214003F004140D1540132102AF7D107A90091384612
S214003F10194600F04FFA034600287FF43DAFA4EBA5
S214003F2008040DF1200AD844002C8CD0102CA3468F
S214003F304FF0100228BF4FF0100B0021504607F03C
S214003F4011FB5A464146504607F001FB00220CABD7
S214003F50D15C12F80A004140D1540132102AF7D140
S214003F6007A900913846194600F024FA03460028AF
S214003F707FF412AFA4EB0B04D844D5E7102EB2465C
S214003F8028BF4FF0100AB9F1000F2CD007AB0093F2
S214003F90102243462146384600F00CFA0346002815
S214003FA07FF4FAAEDAB2924503F1010339D8B9F1DB
S214003FB0010F40D0229B53442293219B0DF14F01C9
S214003FC053442193A6EB0A060A4613780133DBB264
S214003FD002F80139002B7FF44BAF8B1A0398DBB243
S214003FE08342F2D344E710224946404607F0BAFA25
S214003FF052462199404607F0AAFA4A460CABD15CD5
S21400400012F808004140D1540132102AF7D107A90E
S21400401000913846194600F0CDF903460028B5D081
S214004020BAE614A98818219910F8300C895C41402A
S21400403022988154B6E710220021404607F092FAF3
S21400404052462299404607F082FA00220CABD15C19
S21400405012F808004140D1540132102AF7D107A9BE
S21400406000913846194600F0A5F903460028A1D06D
S21400407092E64022002107F075BA2DE9F041044689
S21400408017460846012219461E4600F04BF905461B
S21400409090B14369102B0FD1204600F057F92946FE
S2140040A0204600F0BBFA48B932463946204601237E
S2140040B0BDE8F04100F05CB96FF00C00BDE8F0819F
S2140040C010B5044600F042F904F1400300229C4279
S2140040D000D110BD22700134F9E710B588B00F9CEE
S2140040E006940E9C05940D9C04940C9C03940B9CC7
S2140040F002940A9CCDE9003413460A460021FFF7D5
S2140041003CFE08B010BDF0B58DB0DDE915450E4695
S21400411008A9CDE9044114990391139902911299C3
S214004120179F0697CDE90031134601213246FFF767
S21400413024FE60B90346DAB2974203F1010308D8B9
S21400414028B126440023B4420BD16FF00E000DB008
S214004150F0BD0CA91144AA5C11F8101C4A4010438B
S214004160E9E723700134EEE710B1006800B140695A
S214004170704710B5891A0024E3B2994204F101048D
S21400418000D810BD03449954F6E70000F0B508B314
S21400419002B3431813F8015CB5FA85F34E1B5B09AE
S2140041A016608D4288BF43F0010300228A4204D184
S2140041B0002B094808BF0020F0BD845C964284EAC4
S2140041C005048CBF0027012714FB07F42343DBB24A
S2140041D00132EBE70148EFE7009EFFFF009FFFFF7D
S2140041E0802330B58354891A012300248B4200D3E0
S2140041F030BDC5180133AC54DBB2F7E770B5012308
S2140042008D1A0026AB4203D3084400F8015C70BD4B
S214004210C4181444013304F8016CDBB2F2E7000062
S21400422070B5F8B1F2B14D1E445DB4FA84F30E1BBE
S2140042305B098C4294BF194643F0010116600023C7
S2140042409D4204D80029084808BF002070BD9E4241
S214004250C25C8CBF0024012412FB04F21143C9B2D5
S2140042600133EDE70148F1E7009EFFFF009FFFFFE7
S21400427010B502440024131A994200D810BD02F863
S214004280014BF8E718B112B11160002070470148E1
S214004290704700BF009FFFFFF0B5F8B1F2B10023F2
S2140042A013600844802421B9002C0D4808BF002064
S2140042B0F0BD10F8015D1668002D0CBF1D4643F0DA
S2140042C001056B40013901FB03F73E431660067893
S2140042D016FB03F35C40E4B22B46E4E70148E7E74D
S2140042E0009EFFFF009FFFFF30B5B8B1B2B10023BC
S2140042F0136001448142A1EB000501D1002030BDCE
S21400430011F8014D002C0CBF1C4643F0010463401D
S2140043106B4315682B4313602346EBE70048EEE734
S214004320009FFFFF30B5084C63680BB9184630BDD8
S2140043309D692D78854205D15D688D4202D15D78F4
S2140043409542F3D00834EFE740E3000010B504468A
S21400435050B1C06B18B123689B695B6A984704F13B
S214004360400300229C4200D110BD22700134F9E7C0
S21400437030B4C8B10468BCB12569AD0702D465681D
S214004380954211D1012B4260037204D06578032D4B
S21400439001D0052D04D1A3699B69C06B30BC1847BA
S2140043A013B9A369DB69F8E7014830BC704700BF62
S2140043B0009FFFFF2DE9F04F85B00F461546994642
S2140043C0DDF83880044618B9714805B0BDE8F08FAE
S2140043D00368002BF8D0B8F1000FF5D00022C8F81B
S2140043E00020FFF7C1FE5A78012A064610D1A842DF
S2140043F040F0C8809B69C8F800005D68E06B0A461C
S21400440094F908104B46AC4605B0BDE8F04F60473F
S214004410062A0AD1E06BC8F800500A464B462946E1
S21400442005B0BDE8F04F01F091BD002800F0AC806B
S214004430494508D1616A0029C6D1B5FBF0F100FBF9
S21400444011510029C0D1022A6ED194F90830606A51
S2140044507BB9E268331A7AB1AB420FD314302A46DE
S2140044603946204407F073F8636A1D4465620020ED
S214004470ABE7012B02D1331AAB42EFD810B3A6EB51
S214004480000A143052463946204407F060F82346A6
S21400449094F9081053F8142B9269CDE9003904F109
S2140044A02803D2F808B0E06B3246D84700288CD1F3
S2140044B0D8F800303344C8F80030B144606257443E
S2140044C0A5EB0A05002DD2D0B5FBF6FA06FB1A5A64
S2140044D0BAF1000F06D194F908301BB9E368002B37
S2140044E018BFB246A5EB0A055246791904F1140026
S2140044F007F02DF8636A53446362002DB7D0236833
S21400450094F908109B69CDE900792A469E68E06B0D
S21400451004F12803B04700287FF457AFD8F80030DE
S2140045201D44C8F8005050E7032A10D19B6994F93F
S2140045300810CDE9017904F128020092DE68E06BEC
S21400454004F124032A46B0470028EAD03DE7052AAE
S2140045500ED19B69CDE9017904F1140200921E691F
S214004560E06B04F1280304F124022946B047EBE788
S214004570072A0BD19B69E06B5E693A464B46294693
S214004580B047E1E7034820E703481EE703481CE777
S214004590009FFFFF809DFFFF809CFFFF809FFFFF27
S2140045A008B303685B78022B1DD104291DD8DFE809
S2140045B001F003090D1115000D4BC3600D4B03618F
S2140045C0002070470C4BC3600C4BF8E70C4BC360E5
S2140045D00C4BF4E70C4BC3600C4BF0E700230C4A83
S2140045E0C3600261ECE70B4870470B48704700BF9A
S2140045F0734100008D410000E14100009942000037
S214004600FD4100002142000071420000E942000026
S21400461085420000009FFFFF809FFFFF38B50446DD
S2140046200D4681B178B14022002106F09BFFAB69B0
S2140046301B6A9847E06340B1256000212046FFF7DB
S214004640AFFF002038BD0248FCE70248FAE700BF8B
S214004650009FFFFF809EFFFF10B5044600F0EAFCB7
S2140046602046BDE8104006F05BBF10B54FF4C071A1
S214004670012006F00DFF044608B100F0D6FC2046E7
S21400468010BD00F00FBF00F0FEBE01F09DBA11464F
S2140046901A4601F06BB800F0E6BE00F0D5BE10B5C5
S2140046A0044600F0BDFC2046BDE8104006F038BFCA
S2140046B010B58021012006F0EBFE044608B100F09C
S2140046C0ABFC204610BD00F0A5BE00F09EBE01F07B
S2140046D011B811461A4600F0F5BE10B50446FFF7AD
S2140046E0EFFC2046BDE8104006F01ABF10B540218A
S2140046F0012006F0CDFE044608B1FFF7BAFC2046BE
S21400470010BD13460A460521FFF7B7BC13460A46F6
S2140047100221FFF7B2BC10B5044601F09AFC204611
S214004720BDE8104006F0FCBE10B54FF4C471012081
S21400473006F0AEFE044608B101F03CFB204610BD74
S21400474013460A46052101F03ABB13460A460221E3
S21400475001F035BB10B50446FEF74DFF2046BDE818
S214004760104006F0DDBE10B54FF48A71012006F049
S2140047708FFE044608B1FEF739FF204610BDFFF74E
S2140047805BB9FEF743BFFFF7CBBAFFF792BAFFF766
S21400479028BAFFF7A2B910B50446FEF76DFD20460D
S2140047A0BDE8104006F0BCBE10B541F2480101203D
S2140047B006F06EFE044608B1FEF759FD204610BD11
S2140047C0FEF766BDFEF7A1BEFEF768BEFEF719BE91
S2140047D0FEF7CABD10B50446FEF7CDFC2046BDE880
S2140047E0104006F09DBE10B54FF48471012006F00F
S2140047F04FFE044608B1FEF7B9FC204610BD000087
S21400480010B512F0070404D1D208FEF7BEFC20460D
S21400481010BD0148FCE700BF009FFFFFFEF7D6BCB7
S21400482010B5044600F0B6F82046BDE8104006F085
S21400483077BE10B52421012006F02AFE044608B1F2
S21400484000F0A2F8204610BD00F0C4B800F0A4B8EE
S21400485000F0ECBA00F002BA00F070B900F021B92E
S21400486030B50568046802680368880785B011D00B
S214004870CDE90054CDE902236C460B4604AD224632
S21400488003CAAA4218605960144603F10803F6D119
S21400489005B030BDC1E90054C1E90223F8E77FB591
S2140048A08B07024615D00B466D4601F110061868B8
S2140048B059682C4603C40833B3422546F7D1009BFB
S2140048C01360019B1360029B1360039B136004B08C
S2140048D070BDD1E90054D1E9020315601460106080
S2140048E0F4E700F10473102A30B54FEA43131AD1E7
S2140048F001221A60D1E90054D1E90223C0F8105110
S214004900C0F81041C0F81021C0F81031D1E90454A5
S214004910D1E90623C0F81051C0F81041C0F81021A4
S214004920C0F8103130BD00221A60D1E90054D1E938
S21400493002234562446242624362F3E7F0B58C07A5
S21400494089B006460B4615460FD0082A6C4610D18D
S21400495001F1100718685968224603C20833BB42A3
S2140049601446F7D12A4669463046FFF7BAFF09B023
S214004970F0BD01F1200718685968224603C20833C3
S214004980BB421446F7D1EDE718B12422002106F009
S214004990E9BD7047FFF7F8BF70B50E4615460446EA
S2140049A090B189B12422002106F0DCFD802D02D0D2
S2140049B0B5F5807F0BD12046EA0840F8045B314607
S2140049C006F0C5FD002070BD6FF02100FBE76FF01C
S2140049D02200F8E72DE9F043884689B016460446DB
S2140049E0002858D0002956D02422002106F0BAFD0F
S2140049F0802E02D0B6F5807F50D1266000F0E0FA17
S214004A000023436003600546FCF7DCFC802E0CBFE9
S214004A100827102781463A4641462846FFF78EFF6C
S214004A204846FCF7D3FC0523AB602B699A07FCD4F9
S214004A30FCF7C8FC0434A30706463A4626D0694667
S214004A402846FEF7C3FA082F14D16A4604AF134669
S214004A5003CBBB42206061601A4604F10804F6D11D
S214004A603046FCF7B3FC284600F0B4FA002009B044
S214004A70BDE8F0836B4608AF1A4603CABA42206008
S214004A806160134604F10804F6D1E9E7214628469A
S214004A90FEF79CFAE4E76FF02100E8E76FF02200EB
S214004AA0E5E72DE9F047894690461F46044600286C
S214004AB03ED0002A3CD0002B3AD00368802B02D090
S214004AC0B3F5807F37D100F07BFA002343600360A4
S214004AD00546FCF777FC2368802B0CBF08221022C3
S214004AE08246211D284605F18006FFF727FF41462E
S214004AF03046FFF7D4FE5046FCF768FCB9F1010FCC
S214004B000CBF05230623AB602C6914F00204FBD10E
S214004B10FCF758FC394680463046FFF7A1FE404673
S214004B20FCF754FC284600F055FA2046BDE8F0870E
S214004B306FF02100FAE76FF02200F7E72DE9F74F54
S214004B400F4690461E46824600287ED00C9B002BC1
S214004B507BD00D9B002B78D0002E76D012F00F0560
S214004B6073D10368802B02D0B3F5807F70D100F03C
S214004B7027FA0023436003600446FCF723FCDAF8B8
S214004B800030802B14BF1022082281460AF104014F
S214004B902046FFF7D3FE012F0CBF04F1800004F17E
S214004BA088003146FFF77BFE4846FCF70FFC04F111
S214004BB08009454515D30F2D0CD9012F39D10D9BF2
S214004BC0103D1D4405F1100355F8042B46F8042B40
S214004BD09D42F9D1204600F0FDF9002003B0BDE863
S214004BE0F08F0C9B03EB050B0D9B012F03EB050AC7
S214004BF013D1FCF7E7FB5946019004F1A000FFF73C
S214004C004EFE0522A26051464846FFF729FE019B4C
S214004C101846FCF7DBFB1035CBE7FCF7D3FB594611
S214004C2001904846FFF73BFE0B4B23650123636567
S214004C30E9E7FCF7C7FB3146054604F18800FFF7B5
S214004C400FFE2846FCF7C2FBC4E76FF02100C5E75D
S214004C506FF02200C2E700BF4406514D2DE9F04F29
S214004C6087B08146CDE90021109F1D46EBB11C6838
S214004C70B9F1000F00F0D280119B002B00F0CE801F
S214004C80129B002B00F0CA80002F00F0C780D9F8D6
S214004C900030802B03D0B3F5807F40F0C28009F14E
S214004CA004034FF0000A05931AE01C46E0E714B32D
S214004CB0119B3A5D13F80A10019B012B82EA010250
S214004CC009BF129B129BD2B203F80A2016BF03F844
S214004CD00A203A553955013404F00F040AF1010A46
S214004CE0009B9A45E3D3002D00F09E802C600020A8
S214004CF007B0BDE8F08F00F063F944600460064634
S214004D00FCF760FBD9F800200599802A804614BF7E
S214004D1010220822304606F1800BFFF70FFE3946B8
S214004D205846FFF7BCFD4046FCF750FB009BA3EB44
S214004D300A0828F00F0806F18403D0440493D045EF
S214004D4019D1FCF73FFB394682465846FFF788FDE7
S214004D505046FCF73BFB129B009A03EB080A119B9C
S214004D609844129B1344534530D1304600F032F934
S214004D70DDF800A0B4E70523B36032699107FCD4E0
S214004D80FCF720FB119B039003EB0A01129B534494
S214004D900293019B012B0DD106F1A000FFF77FFDCA
S214004DA002995846FFF75CFD0398FCF70FFB0AF1E3
S214004DB0100AC4E70498FFF772FD4923B36002990E
S214004DC05846FFF74DFD4822B260EDE78CB9052244
S214004DD0B26032699207FCD40393FCF7F3FA3946C3
S214004DE002905846FFF73CFD029A1046FCF7EEFA92
S214004DF0039B3A5D18F8011B01984A40012805BF3D
S214004E00D2B28AF800208AF800203A5518BF3955E1
S214004E10013404F00F040AF1010AA4E76FF0210040
S214004E2066E76FF0220063E7284661E72DE9F04F5A
S214004E30814685B088469B461646F2B11768B9F19A
S214004E40000F00F0B5800F9B002B00F0B180109B88
S214004E50002B00F0AD80BBF1000F00F0A9800E9B88
S214004E60002B00F0A580D9F80030802B03D0B3F5D6
S214004E70807F40F0A08000240DE01746DFE7A7B152
S214004E800F9B0E9A1B5DD25D5340109A0137135547
S214004E9007F00F0701344445F1D3002E00F08E8052
S214004EA03760002005B0BDE8F08F00F089F84FF4B9
S214004EB04043476003600546FCF784FAD9F80030A3
S214004EC0802B824614BF1022082209F104012846CE
S214004ED0FFF734FD05F18403184659460093FFF7A3
S214004EE0DEFC5046A8EB040A2AF00F0AFCF76EFA1E
S214004EF0A244032354451AD10F9B03EB040A109BCC
S214004F001C440F9B434401930323019A92452DD1E1
S214004F10FCF758FA594604460098FFF7A1FC2046CD
S214004F20FCF754FA284600F055F84446B3E7482202
S214004F30AA600522AA602A699107FCD4AB60029396
S214004F40FCF740FA0F9B0190191905F1A000FFF736
S214004F50A6FC109B05F180001919FFF781FC019A49
S214004F601046FCF733FA1034029BC3E7AFB9482269
S214004F70AA600522AA602A699207FCD4AB60039354
S214004F80FCF720FA0E99029005F18000FFF768FC06
S214004F90029A1046FCF71AFA039B0E991AF8012B90
S214004FA0C95D01374A4004F8012B07F00F07ACE74C
S214004FB06FF0210076E76FF0220073E7304671E766
S214004FC0024B034801221A60704700BF0016C84310
S214004FD000000F40094B98420ED003F580639842BC
S214004FE009D10122064B03EBC2035A68054B134452
S214004FF09B0000221A6070470022F3E700000F4073
S21400500060E700008005F21001440023884200D1CA
S214005010704703700130F9E78022002106F0A2BA3B
S21400502010B18021FFF7F0BF70474FF4C072002127
S21400503006F098BA18B14FF4C071FFF7E5BF704795
S2140050402DE9F0410A684B68B84C12BA1BBA82EADE
S214005050131101F00F314A4083EA011382EA03017B
S21400506001F010314A404B40C2F34351083054F827
S214005070215002F00F0154F82160C2F3036154F886
S214005080211041EAC601560F54F8266041EA06117F
S214005090C2F3032654F8266041EA8601C2F30346AB
S2140050A054F8266041EA4601C2F34316C2F343327F
S2140050B054F8266054F822209D4C41EAC61141EA75
S2140050C08211C3F3035241EA45111E0F54F82250D1
S2140050D054F82660C3F3436221F0704154F822204E
S2140050E042EA0612C3F3430654F8266042EAC602B2
S2140050F0C3F3432654F8266042EA8602C3F34346C7
S21400510054F8266042EA4602C3F30316C3F3033399
S21400511054F8266054F8233042EAC61242EA831254
S21400512042EA451222F07042002440F60805012C9F
S21400513004DD082C02D00F2C40F0EF80CB0E43EAA3
S2140051404101D30E21F0704143EA42024FEA011CAE
S2140051500B0722F0704203F080530CF0105C4CEA10
S214005160030C02F480734CEA030C8B0303F0006319
S2140051704CEA030C8B0403F002734CEA030C8B011D
S21400518003F080734CEA030C4B0203F400134CEA62
S214005190030C4B084FEA812803F480134CEA030CF7
S2140051A008F480234CEA030C8B0003F400334CEA2B
S2140051B0030C8B0A03F480334CEA030C530B03F402
S2140051C000534CEA030C130903F480534CEA030C17
S2140051D0930103F400634CEA030C5308970B03F4A3
S2140051E080634CEA030C07F400734CEA030C530983
S2140051F003F020034CEA030C930AD60803F01003CE
S2140052004CEA030C06F008034CEA03034FEA924C00
S2140052100CF0040C43EA0C034FEA926C0CF0020C00
S21400522043EA0C03C2F3006C43EA0C034FEA414E18
S2140052304FEAC13C40F8083C0EF0805E0CF000538C
S2140052404EEA030302F4007E43EA0E0308F0006809
S2140052504FEA815E0EF0806E43EA080343EA0E03CF
S2140052604FEA910E0EF0007E43EA0E034FEA410E1F
S2140052700EF0807E43EA0E034FEA014E0EF4001E47
S21400528043EA0E034FEAC12E0EF4801E43EA0E03D5
S2140052904FEAC10E0EF4002E43EA0E034FEA911EAB
S2140052A00EF4802E0CF4003C43EA0E0343EA0C0393
S2140052B04FEA111C0CF4803C43EA0C034FEA920CB4
S2140052C00CF4005C43EA0C034FEA022C0CF4805CFE
S2140052D02F4043EA0C033B43570A07F480673B43DF
S2140052E0D70107F480773B43D70907F0200706F07D
S2140052F011063B433343960006F004063343560D2F
S21400530006F0020601343343102C40F8043C00F14A
S21400531008007FF40CAFBDE8F0818B0E43EA8101F4
S214005320930E21F0704143EA82020FE770E7000017
S214005330B0E7000070B50C46164611460546FFF766
S2140053407FFE04F1800006F10801FFF779FE214692
S2140053502846A5F180042B460A46856F0D60C56F6A
S2140053604D60D2F8F850C3F88050D2F8FC50C3F81D
S21400537084501D68C3F800515D68C3F804510D6879
S214005380C1F8005108384D68C1F80451A04201F137
S2140053900801A2F1080203F10803DED170BD70B562
S2140053A016460D4611460446FFF74AFE06F108016A
S2140053B005F18000FFF744FE04F5807006F1100149
S2140053C0FFF73EFE20462946803C03462A46D0F894
S2140053D078510D60D0F87C514D60D2F8F850C3F883
S2140053E08050D2F8FC50C3F88450856FC1F8005145
S2140053F0C56FC1F804510838844201F10801A2F1D2
S214005400080203F10803E2D170BD08B5FFF718FEE5
S214005410002008BD38B50446FFF712FE2146234695
S21400542000229D6F54F8220044F8225098670232FA
S2140054304868DD6F4D60102AD86701F10801A3F1B6
S2140054400803EED1002038BD00B5E1B00A46694633
S214005450FFF770FF68464FF4C071FFF7D5FD0020D8
S21400546061B05DF804FB00B5E1B00A460146684647
S214005470FFF760FF68464FF4C071FFF7C5FD0020D8
S21400548061B05DF804FB00B5E1B00A466946FFF777
S21400549086FF68464FF4C071FFF7B6FD002061B086
S2140054A05DF804FB00B5E1B00A4601466846FFF722
S2140054B076FF68464FF4C071FFF7A6FD002061B086
S2140054C05DF804FB2DE9F74F0B684C68DFF8CCE17C
S2140054D06D4EDFF8CC81DFF8CCC16C4F1BBA24BA16
S2140054E084EA131101F00F314C4083EA011184EA7B
S2140054F01145ADB284EA050381EA054181EA9304C9
S21400550004F03334614083EA840381EA132404F010
S214005510FF1483EA042361404FEAF37381EA03042D
S21400552004F0AA346140634000F1100490304FEA62
S214005530F171019054F8100C554D83EA000A54F8A6
S2140055400C0C80EA33190AF03F0B09F03F005EF8B6
S2140055502BB056F820008BEA0000CAF3052B103457
S21400556058F82BB080EA0B00CAF3054B5CF82BB05A
S21400557080EA0B0BCAF3056057F820008BEA000B95
S214005580C9F3052055F82000424D8BEA000BC9F3FD
S214005590054055F82000404D8BEA000BC9F3056026
S2140055A055F820003A4D8BEA000B54F8180C81EAA7
S2140055B00B0181EA000A54F8140C0AF03F0B80EA4B
S2140055C03119CAF305205EF82BB058F8200080EA9F
S2140055D00B004340CAF305405CF820004340CAF382
S2140055E0056057F82000434009F03F0056F82000B9
S2140055F04340C9F3052055F82000264D4340C9F323
S214005600054055F82000244D4340C9F3056055F881
S21400561020004340019884428CD14FEA730383EA0A
S214005620010000F0AA30414043404FEA710183EA8E
S214005630112000F0FF10434081EA002183EA910028
S21400564000F03330434081EA800181EA134080B2A3
S214005650414083EA004381EA131000F00F3083EAEA
S21400566000134140180E1070180C5070D370180AB2
S2140056700B0E13710B0C9070537100200B0A937174
S214005680D17103B0BDE8F08FF0ED0000F0E8000047
S214005690F0EB0000F0E90000F0E70000F0EE00009C
S2140056A0F0EC0000F0EA00002DE9F041069C074609
S2140056B016465D1E04EB0108A04502D10020BDE899
S2140056C0F081711E621E05F1080015F8013F11F801
S2140056D001CF854283EA0C0302F8013FF5D122464A
S2140056E021463846FFF7EEFE236833606368736032
S2140056F00834E1E72DE9F3411E4653078C4607467A
S2140057001146DDE908542ED1BCF1010F28D12B46F5
S2140057103246089402B0BDE8F041FFF7C5BF2868DE
S21400572069686B4603C3224629463846FFF7CAFE19
S214005730631E711EE01D13F8012F11F801CF83427E
S21400574082EA0C021A70F6D16B4603CB083530603D
S21400575071600834A045E2D1002002B0BDE8F081B7
S21400576004EB0208F6E76FF03100F6E72DE9F04F9C
S21400577094464B680A68D94DDFF87CE3D84FD94E7B
S214005780DFF870B312BA1BBA83EA121101F00F31B8
S2140057904B4082EA011283EA124189B24B4082EA08
S2140057A0014282EA930101F033314A4083EA8103E1
S2140057B082EA132101F0FF1183EA01234A404FEAEF
S2140057C0F37382EA030101F0AA3185B04A404FEA3A
S2140057D0F27201920246903202904B4000F11004A1
S2140057E0039254F8101CC04883EA010954F80C1CB4
S2140057F081EA331809F03F0A08F03F0150F82AA062
S21400580055F82110B9488AEA0101C9F3052A10346F
S2140058105EF82AA081EA0A01C9F3054A57F82AA0C9
S21400582081EA0A0AC9F3056156F821108AEA010AD4
S214005830C8F305215BF821108AEA010AC8F305417E
S21400584050F82110AA488AEA010AC8F30561024600
S21400585050F821108AEA010A019981EA0A010191A9
S214005860019854F8181C80EA010954F8141C09F031
S2140058703F0A81EA30189C48C9F3052150F82AA04F
S2140058805EF82110994881EA0A014B40C9F30541A8
S21400589057F821104B40C9F3056156F821104B40CC
S2140058A008F03F0155F821104B40C8F305215BF87E
S2140058B021104B40C8F3054150F821104B40C8F367
S2140058C0056152F82110039AA24283EA010388D1A7
